{"contracts/FlappyDistributor.sol":{"FlappyDistributor":{"abi":[{"inputs":[{"internalType":"address","name":"_bossToken","type":"address"}],"stateMutability":"nonpayable","type":"constructor"},{"inputs":[],"name":"EnforcedPause","type":"error"},{"inputs":[],"name":"ExpectedPause","type":"error"},{"inputs":[{"internalType":"address","name":"owner","type":"address"}],"name":"OwnableInvalidOwner","type":"error"},{"inputs":[{"internalType":"address","name":"account","type":"address"}],"name":"OwnableUnauthorizedAccount","type":"error"},{"anonymous":false,"inputs":[{"indexed":true,"internalType":"address","name":"previousOwner","type":"address"},{"indexed":true,"internalType":"address","name":"newOwner","type":"address"}],"name":"OwnershipTransferred","type":"event"},{"anonymous":false,"inputs":[{"indexed":false,"internalType":"address","name":"account","type":"address"}],"name":"Paused","type":"event"},{"anonymous":false,"inputs":[{"indexed":true,"internalType":"address","name":"claimer","type":"address"},{"indexed":false,"internalType":"uint256","name":"bossAmount","type":"uint256"},{"indexed":false,"internalType":"uint256","name":"quaiAmount","type":"uint256"}],"name":"RewardsClaimed","type":"event"},{"anonymous":false,"inputs":[{"indexed":false,"internalType":"address","name":"account","type":"address"}],"name":"Unpaused","type":"event"},{"anonymous":false,"inputs":[],"name":"WeeklyClaimsReset","type":"event"},{"inputs":[],"name":"BOSS_REWARD_POOL","outputs":[{"internalType":"uint256","name":"","type":"uint256"}],"stateMutability":"view","type":"function"},{"inputs":[],"name":"QUAI_REWARD_POOL","outputs":[{"internalType":"uint256","name":"","type":"uint256"}],"stateMutability":"view","type":"function"},{"inputs":[],"name":"bossToken","outputs":[{"internalType":"contract IERC20","name":"","type":"address"}],"stateMutability":"view","type":"function"},{"inputs":[],"name":"claimRewards","outputs":[],"stateMutability":"nonpayable","type":"function"},{"inputs":[{"internalType":"address","name":"","type":"address"}],"name":"claimableBOSS","outputs":[{"internalType":"uint256","name":"","type":"uint256"}],"stateMutability":"view","type":"function"},{"inputs":[{"internalType":"address","name":"","type":"address"}],"name":"claimableQUAI","outputs":[{"internalType":"uint256","name":"","type":"uint256"}],"stateMutability":"view","type":"function"},{"inputs":[{"internalType":"uint256","name":"","type":"uint256"}],"name":"claimers","outputs":[{"internalType":"address","name":"","type":"address"}],"stateMutability":"view","type":"function"},{"inputs":[{"internalType":"address","name":"","type":"address"}],"name":"eligibleClaimers","outputs":[{"internalType":"bool","name":"","type":"bool"}],"stateMutability":"view","type":"function"},{"inputs":[{"internalType":"address","name":"","type":"address"}],"name":"hasClaimedThisWeek","outputs":[{"internalType":"bool","name":"","type":"bool"}],"stateMutability":"view","type":"function"},{"inputs":[],"name":"multiplier","outputs":[{"internalType":"uint256","name":"","type":"uint256"}],"stateMutability":"view","type":"function"},{"inputs":[],"name":"owner","outputs":[{"internalType":"address","name":"","type":"address"}],"stateMutability":"view","type":"function"},{"inputs":[],"name":"pauseContract","outputs":[],"stateMutability":"nonpayable","type":"function"},{"inputs":[],"name":"paused","outputs":[{"internalType":"bool","name":"","type":"bool"}],"stateMutability":"view","type":"function"},{"inputs":[],"name":"renounceOwnership","outputs":[],"stateMutability":"nonpayable","type":"function"},{"inputs":[],"name":"resetWeeklyClaims","outputs":[],"stateMutability":"nonpayable","type":"function"},{"inputs":[{"internalType":"address[]","name":"_claimers","type":"address[]"},{"internalType":"uint256[]","name":"bossAmounts","type":"uint256[]"},{"internalType":"uint256[]","name":"quaiAmounts","type":"uint256[]"}],"name":"setEligibleClaimers","outputs":[],"stateMutability":"nonpayable","type":"function"},{"inputs":[{"internalType":"address","name":"newOwner","type":"address"}],"name":"transferOwnership","outputs":[],"stateMutability":"nonpayable","type":"function"},{"inputs":[],"name":"unpauseContract","outputs":[],"stateMutability":"nonpayable","type":"function"},{"inputs":[{"internalType":"uint256","name":"_BOSS_REWARD_POOL","type":"uint256"},{"internalType":"uint256","name":"_QUAI_REWARD_POOL","type":"uint256"}],"name":"updateRewardPool","outputs":[],"stateMutability":"nonpayable","type":"function"},{"inputs":[{"internalType":"address","name":"_bossToken","type":"address"}],"name":"updateRewardTokens","outputs":[],"stateMutability":"nonpayable","type":"function"}],"evm":{"bytecode":{"linkReferences":{},"object":"608060405234801561001057600080fd5b5060405161101238038061101283398101604081905261002f916100fd565b338061005557604051631e4fbdf760e01b81526000600482015260240160405180910390fd5b61005e816100ad565b50600180546001600160a01b0319166001600160a01b03831617905561008e670de0b6b3a7640000614e2061012d565b6002556100a4670de0b6b3a7640000600a61012d565b60035550610158565b600080546001600160a01b038381166001600160a01b0319831681178455604051919092169283917f8be0079c531659141344cd1fd0a4f28419497f9722a3daafe3b4186f6b6457e09190a35050565b60006020828403121561010f57600080fd5b81516001600160a01b038116811461012657600080fd5b9392505050565b808202811582820484141761015257634e487b7160e01b600052601160045260246000fd5b92915050565b610eab806101676000396000f3fe608060405234801561001057600080fd5b506004361061016c5760003560e01c80638da5cb5b116100cd578063b17d36bf11610081578063c574c2e311610066578063c574c2e3146102c8578063dfaff1b8146102e8578063f2fde38b146102fb57600080fd5b8063b17d36bf146102b7578063b33712c5146102c057600080fd5b80639f08e497116100b25780639f08e49714610289578063a14e10dd1461029c578063a60e40e5146102a457600080fd5b80638da5cb5b1461025157806399ae559d1461027657600080fd5b8063439766ce116101245780635c975abb116101095780635c975abb14610214578063715018a6146102265780637a57823f1461022e57600080fd5b8063439766ce146101f9578063500574d31461020157600080fd5b80632e4c3f62116101555780632e4c3f62146101b3578063340d7606146101e6578063372500ab146101ef57600080fd5b80631b3ed722146101715780632a2bb99114610193575b600080fd5b610180670de0b6b3a764000081565b6040519081526020015b60405180910390f35b6101806101a1366004610ca0565b60076020526000908152604090205481565b6101d66101c1366004610ca0565b60056020526000908152604090205460ff1681565b604051901515815260200161018a565b61018060025481565b6101f761030e565b005b6101f76106d9565b6101f761020f366004610d1c565b6106eb565b600054600160a01b900460ff166101d6565b6101f76108f8565b6101d661023c366004610ca0565b60066020526000908152604090205460ff1681565b6000546001600160a01b03165b6040516001600160a01b03909116815260200161018a565b61025e610284366004610db6565b61090a565b6101f7610297366004610ca0565b610934565b6101f761096b565b60015461025e906001600160a01b031681565b61018060035481565b6101f7610a0b565b6101806102d6366004610ca0565b60086020526000908152604090205481565b6101f76102f6366004610dcf565b610a1b565b6101f7610309366004610ca0565b610a51565b610316610aa8565b3360009081526005602052604090205460ff1661037a5760405162461bcd60e51b815260206004820152601860248201527f4e6f7420656c696769626c6520666f722072657761726473000000000000000060448201526064015b60405180910390fd5b3360009081526006602052604090205460ff16156103da5760405162461bcd60e51b815260206004820152601960248201527f416c726561647920636c61696d65642074686973207765656b000000000000006044820152606401610371565b33600090815260076020908152604080832054600890925290912054811515806104045750600081115b6104505760405162461bcd60e51b815260206004820152601460248201527f4e6f207265776172647320617661696c61626c650000000000000000000000006044820152606401610371565b816002541015801561046457508060035410155b6104b05760405162461bcd60e51b815260206004820152601260248201527f506f6f6c206973206e6f7420656e6f75676800000000000000000000000000006044820152606401610371565b336000908152600660205260409020805460ff1916600117905581156105aa576001546040517fa9059cbb000000000000000000000000000000000000000000000000000000008152336004820152602481018490526001600160a01b039091169063a9059cbb906044016020604051808303816000875af115801561053a573d6000803e3d6000fd5b505050506040513d601f19601f8201168201806040525081019061055e9190610df1565b6105aa5760405162461bcd60e51b815260206004820152601460248201527f424f5353207472616e73666572206661696c65640000000000000000000000006044820152606401610371565b801561069a57804710156106005760405162461bcd60e51b815260206004820152601960248201527f496e73756666696369656e7420515541492062616c616e6365000000000000006044820152606401610371565b604051600090339083908381818185875af1925050503d8060008114610642576040519150601f19603f3d011682016040523d82523d6000602084013e610647565b606091505b50509050806106985760405162461bcd60e51b815260206004820152601460248201527f51554149207472616e73666572206661696c65640000000000000000000000006044820152606401610371565b505b604080518381526020810183905233917fdacbdde355ba930696a362ea6738feb9f8bd52dfb3d81947558fd3217e23e325910160405180910390a25050565b6106e1610aec565b6106e9610b32565b565b6106f3610aec565b848314801561070157508481145b61074d5760405162461bcd60e51b815260206004820152601760248201527f4d69736d61746368656420696e707574206172726179730000000000000000006044820152606401610371565b61075960046000610c6e565b60005b858110156108ef5760016005600089898581811061077c5761077c610e13565b90506020020160208101906107919190610ca0565b6001600160a01b031681526020810191909152604001600020805460ff19169115159190911790558484828181106107cb576107cb610e13565b90506020020135600760008989858181106107e8576107e8610e13565b90506020020160208101906107fd9190610ca0565b6001600160a01b0316815260208101919091526040016000205582828281811061082957610829610e13565b905060200201356008600089898581811061084657610846610e13565b905060200201602081019061085b9190610ca0565b6001600160a01b03168152602081019190915260400160002055600487878381811061088957610889610e13565b905060200201602081019061089e9190610ca0565b815460018101835560009283526020909220909101805473ffffffffffffffffffffffffffffffffffffffff19166001600160a01b03909216919091179055806108e781610e3f565b91505061075c565b50505050505050565b610900610aec565b6106e96000610b92565b6004818154811061091a57600080fd5b6000918252602090912001546001600160a01b0316905081565b61093c610aec565b6001805473ffffffffffffffffffffffffffffffffffffffff19166001600160a01b0392909216919091179055565b610973610aec565b60005b6004548110156109df576000600660006004848154811061099957610999610e13565b6000918252602080832091909101546001600160a01b031683528201929092526040019020805460ff1916911515919091179055806109d781610e3f565b915050610976565b506040517ffe483a50df06c9cac6296db46f49ecddac4f870b5dbb4bdb29a0fee24ff5ef7590600090a1565b610a13610aec565b6106e9610bef565b610a23610aec565b610a35670de0b6b3a764000083610e58565b600255610a4a670de0b6b3a764000082610e58565b6003555050565b610a59610aec565b6001600160a01b038116610a9c576040517f1e4fbdf700000000000000000000000000000000000000000000000000000000815260006004820152602401610371565b610aa581610b92565b50565b600054600160a01b900460ff16156106e9576040517fd93c066500000000000000000000000000000000000000000000000000000000815260040160405180910390fd5b6000546001600160a01b031633146106e9576040517f118cdaa7000000000000000000000000000000000000000000000000000000008152336004820152602401610371565b610b3a610aa8565b6000805460ff60a01b1916600160a01b1790557f62e78cea01bee320cd4e420270b5ea74000d11b0c9f74754ebdbfc544b05a258610b753390565b6040516001600160a01b03909116815260200160405180910390a1565b600080546001600160a01b0383811673ffffffffffffffffffffffffffffffffffffffff19831681178455604051919092169283917f8be0079c531659141344cd1fd0a4f28419497f9722a3daafe3b4186f6b6457e09190a35050565b610bf7610c2b565b6000805460ff60a01b191690557f5db9ee0a495bf2e6ff9c91a7834c1ba4fdd244a5e8aa4e537bd38aeae4b073aa33610b75565b600054600160a01b900460ff166106e9576040517f8dfc202b00000000000000000000000000000000000000000000000000000000815260040160405180910390fd5b5080546000825590600052602060002090810190610aa591905b80821115610c9c5760008155600101610c88565b5090565b600060208284031215610cb257600080fd5b81356001600160a01b0381168114610cc957600080fd5b9392505050565b60008083601f840112610ce257600080fd5b50813567ffffffffffffffff811115610cfa57600080fd5b6020830191508360208260051b8501011115610d1557600080fd5b9250929050565b60008060008060008060608789031215610d3557600080fd5b863567ffffffffffffffff80821115610d4d57600080fd5b610d598a838b01610cd0565b90985096506020890135915080821115610d7257600080fd5b610d7e8a838b01610cd0565b90965094506040890135915080821115610d9757600080fd5b50610da489828a01610cd0565b979a9699509497509295939492505050565b600060208284031215610dc857600080fd5b5035919050565b60008060408385031215610de257600080fd5b50508035926020909101359150565b600060208284031215610e0357600080fd5b81518015158114610cc957600080fd5b634e487b7160e01b600052603260045260246000fd5b634e487b7160e01b600052601160045260246000fd5b600060018201610e5157610e51610e29565b5060010190565b8082028115828204841417610e6f57610e6f610e29565b9291505056fea26469706673582212201c11f766bb008001d67a46949f7773c60189cae01b0164b624a0734507549fb564736f6c63430008110033","opcodes":"PUSH1 0x80 PUSH1 0x40 MSTORE CALLVALUE DUP1 ISZERO PUSH2 0x10 JUMPI PUSH1 0x0 DUP1 REVERT JUMPDEST POP PUSH1 0x40 MLOAD PUSH2 0x1012 CODESIZE SUB DUP1 PUSH2 0x1012 DUP4 CODECOPY DUP2 ADD PUSH1 0x40 DUP2 SWAP1 MSTORE PUSH2 0x2F SWAP2 PUSH2 0xFD JUMP JUMPDEST CALLER DUP1 PUSH2 0x55 JUMPI PUSH1 0x40 MLOAD PUSH4 0x1E4FBDF7 PUSH1 0xE0 SHL DUP2 MSTORE PUSH1 0x0 PUSH1 0x4 DUP3 ADD MSTORE PUSH1 0x24 ADD PUSH1 0x40 MLOAD DUP1 SWAP2 SUB SWAP1 REVERT JUMPDEST PUSH2 0x5E DUP2 PUSH2 0xAD JUMP JUMPDEST POP PUSH1 0x1 DUP1 SLOAD PUSH1 0x1 PUSH1 0x1 PUSH1 0xA0 SHL SUB NOT AND PUSH1 0x1 PUSH1 0x1 PUSH1 0xA0 SHL SUB DUP4 AND OR SWAP1 SSTORE PUSH2 0x8E PUSH8 0xDE0B6B3A7640000 PUSH2 0x4E20 PUSH2 0x12D JUMP JUMPDEST PUSH1 0x2 SSTORE PUSH2 0xA4 PUSH8 0xDE0B6B3A7640000 PUSH1 0xA PUSH2 0x12D JUMP JUMPDEST PUSH1 0x3 SSTORE POP PUSH2 0x158 JUMP JUMPDEST PUSH1 0x0 DUP1 SLOAD PUSH1 0x1 PUSH1 0x1 PUSH1 0xA0 SHL SUB DUP4 DUP2 AND PUSH1 0x1 PUSH1 0x1 PUSH1 0xA0 SHL SUB NOT DUP4 AND DUP2 OR DUP5 SSTORE PUSH1 0x40 MLOAD SWAP2 SWAP1 SWAP3 AND SWAP3 DUP4 SWAP2 PUSH32 0x8BE0079C531659141344CD1FD0A4F28419497F9722A3DAAFE3B4186F6B6457E0 SWAP2 SWAP1 LOG3 POP POP JUMP JUMPDEST PUSH1 0x0 PUSH1 0x20 DUP3 DUP5 SUB SLT ISZERO PUSH2 0x10F JUMPI PUSH1 0x0 DUP1 REVERT JUMPDEST DUP2 MLOAD PUSH1 0x1 PUSH1 0x1 PUSH1 0xA0 SHL SUB DUP2 AND DUP2 EQ PUSH2 0x126 JUMPI PUSH1 0x0 DUP1 REVERT JUMPDEST SWAP4 SWAP3 POP POP POP JUMP JUMPDEST DUP1 DUP3 MUL DUP2 ISZERO DUP3 DUP3 DIV DUP5 EQ OR PUSH2 0x152 JUMPI PUSH4 0x4E487B71 PUSH1 0xE0 SHL PUSH1 0x0 MSTORE PUSH1 0x11 PUSH1 0x4 MSTORE PUSH1 0x24 PUSH1 0x0 REVERT JUMPDEST SWAP3 SWAP2 POP POP JUMP JUMPDEST PUSH2 0xEAB DUP1 PUSH2 0x167 PUSH1 0x0 CODECOPY PUSH1 0x0 RETURN INVALID PUSH1 0x80 PUSH1 0x40 MSTORE CALLVALUE DUP1 ISZERO PUSH2 0x10 JUMPI PUSH1 0x0 DUP1 REVERT JUMPDEST POP PUSH1 0x4 CALLDATASIZE LT PUSH2 0x16C JUMPI PUSH1 0x0 CALLDATALOAD PUSH1 0xE0 SHR DUP1 PUSH4 0x8DA5CB5B GT PUSH2 0xCD JUMPI DUP1 PUSH4 0xB17D36BF GT PUSH2 0x81 JUMPI DUP1 PUSH4 0xC574C2E3 GT PUSH2 0x66 JUMPI DUP1 PUSH4 0xC574C2E3 EQ PUSH2 0x2C8 JUMPI DUP1 PUSH4 0xDFAFF1B8 EQ PUSH2 0x2E8 JUMPI DUP1 PUSH4 0xF2FDE38B EQ PUSH2 0x2FB JUMPI PUSH1 0x0 DUP1 REVERT JUMPDEST DUP1 PUSH4 0xB17D36BF EQ PUSH2 0x2B7 JUMPI DUP1 PUSH4 0xB33712C5 EQ PUSH2 0x2C0 JUMPI PUSH1 0x0 DUP1 REVERT JUMPDEST DUP1 PUSH4 0x9F08E497 GT PUSH2 0xB2 JUMPI DUP1 PUSH4 0x9F08E497 EQ PUSH2 0x289 JUMPI DUP1 PUSH4 0xA14E10DD EQ PUSH2 0x29C JUMPI DUP1 PUSH4 0xA60E40E5 EQ PUSH2 0x2A4 JUMPI PUSH1 0x0 DUP1 REVERT JUMPDEST DUP1 PUSH4 0x8DA5CB5B EQ PUSH2 0x251 JUMPI DUP1 PUSH4 0x99AE559D EQ PUSH2 0x276 JUMPI PUSH1 0x0 DUP1 REVERT JUMPDEST DUP1 PUSH4 0x439766CE GT PUSH2 0x124 JUMPI DUP1 PUSH4 0x5C975ABB GT PUSH2 0x109 JUMPI DUP1 PUSH4 0x5C975ABB EQ PUSH2 0x214 JUMPI DUP1 PUSH4 0x715018A6 EQ PUSH2 0x226 JUMPI DUP1 PUSH4 0x7A57823F EQ PUSH2 0x22E JUMPI PUSH1 0x0 DUP1 REVERT JUMPDEST DUP1 PUSH4 0x439766CE EQ PUSH2 0x1F9 JUMPI DUP1 PUSH4 0x500574D3 EQ PUSH2 0x201 JUMPI PUSH1 0x0 DUP1 REVERT JUMPDEST DUP1 PUSH4 0x2E4C3F62 GT PUSH2 0x155 JUMPI DUP1 PUSH4 0x2E4C3F62 EQ PUSH2 0x1B3 JUMPI DUP1 PUSH4 0x340D7606 EQ PUSH2 0x1E6 JUMPI DUP1 PUSH4 0x372500AB EQ PUSH2 0x1EF JUMPI PUSH1 0x0 DUP1 REVERT JUMPDEST DUP1 PUSH4 0x1B3ED722 EQ PUSH2 0x171 JUMPI DUP1 PUSH4 0x2A2BB991 EQ PUSH2 0x193 JUMPI JUMPDEST PUSH1 0x0 DUP1 REVERT JUMPDEST PUSH2 0x180 PUSH8 0xDE0B6B3A7640000 DUP2 JUMP JUMPDEST PUSH1 0x40 MLOAD SWAP1 DUP2 MSTORE PUSH1 0x20 ADD JUMPDEST PUSH1 0x40 MLOAD DUP1 SWAP2 SUB SWAP1 RETURN JUMPDEST PUSH2 0x180 PUSH2 0x1A1 CALLDATASIZE PUSH1 0x4 PUSH2 0xCA0 JUMP JUMPDEST PUSH1 0x7 PUSH1 0x20 MSTORE PUSH1 0x0 SWAP1 DUP2 MSTORE PUSH1 0x40 SWAP1 KECCAK256 SLOAD DUP2 JUMP JUMPDEST PUSH2 0x1D6 PUSH2 0x1C1 CALLDATASIZE PUSH1 0x4 PUSH2 0xCA0 JUMP JUMPDEST PUSH1 0x5 PUSH1 0x20 MSTORE PUSH1 0x0 SWAP1 DUP2 MSTORE PUSH1 0x40 SWAP1 KECCAK256 SLOAD PUSH1 0xFF AND DUP2 JUMP JUMPDEST PUSH1 0x40 MLOAD SWAP1 ISZERO ISZERO DUP2 MSTORE PUSH1 0x20 ADD PUSH2 0x18A JUMP JUMPDEST PUSH2 0x180 PUSH1 0x2 SLOAD DUP2 JUMP JUMPDEST PUSH2 0x1F7 PUSH2 0x30E JUMP JUMPDEST STOP JUMPDEST PUSH2 0x1F7 PUSH2 0x6D9 JUMP JUMPDEST PUSH2 0x1F7 PUSH2 0x20F CALLDATASIZE PUSH1 0x4 PUSH2 0xD1C JUMP JUMPDEST PUSH2 0x6EB JUMP JUMPDEST PUSH1 0x0 SLOAD PUSH1 0x1 PUSH1 0xA0 SHL SWAP1 DIV PUSH1 0xFF AND PUSH2 0x1D6 JUMP JUMPDEST PUSH2 0x1F7 PUSH2 0x8F8 JUMP JUMPDEST PUSH2 0x1D6 PUSH2 0x23C CALLDATASIZE PUSH1 0x4 PUSH2 0xCA0 JUMP JUMPDEST PUSH1 0x6 PUSH1 0x20 MSTORE PUSH1 0x0 SWAP1 DUP2 MSTORE PUSH1 0x40 SWAP1 KECCAK256 SLOAD PUSH1 0xFF AND DUP2 JUMP JUMPDEST PUSH1 0x0 SLOAD PUSH1 0x1 PUSH1 0x1 PUSH1 0xA0 SHL SUB AND JUMPDEST PUSH1 0x40 MLOAD PUSH1 0x1 PUSH1 0x1 PUSH1 0xA0 SHL SUB SWAP1 SWAP2 AND DUP2 MSTORE PUSH1 0x20 ADD PUSH2 0x18A JUMP JUMPDEST PUSH2 0x25E PUSH2 0x284 CALLDATASIZE PUSH1 0x4 PUSH2 0xDB6 JUMP JUMPDEST PUSH2 0x90A JUMP JUMPDEST PUSH2 0x1F7 PUSH2 0x297 CALLDATASIZE PUSH1 0x4 PUSH2 0xCA0 JUMP JUMPDEST PUSH2 0x934 JUMP JUMPDEST PUSH2 0x1F7 PUSH2 0x96B JUMP JUMPDEST PUSH1 0x1 SLOAD PUSH2 0x25E SWAP1 PUSH1 0x1 PUSH1 0x1 PUSH1 0xA0 SHL SUB AND DUP2 JUMP JUMPDEST PUSH2 0x180 PUSH1 0x3 SLOAD DUP2 JUMP JUMPDEST PUSH2 0x1F7 PUSH2 0xA0B JUMP JUMPDEST PUSH2 0x180 PUSH2 0x2D6 CALLDATASIZE PUSH1 0x4 PUSH2 0xCA0 JUMP JUMPDEST PUSH1 0x8 PUSH1 0x20 MSTORE PUSH1 0x0 SWAP1 DUP2 MSTORE PUSH1 0x40 SWAP1 KECCAK256 SLOAD DUP2 JUMP JUMPDEST PUSH2 0x1F7 PUSH2 0x2F6 CALLDATASIZE PUSH1 0x4 PUSH2 0xDCF JUMP JUMPDEST PUSH2 0xA1B JUMP JUMPDEST PUSH2 0x1F7 PUSH2 0x309 CALLDATASIZE PUSH1 0x4 PUSH2 0xCA0 JUMP JUMPDEST PUSH2 0xA51 JUMP JUMPDEST PUSH2 0x316 PUSH2 0xAA8 JUMP JUMPDEST CALLER PUSH1 0x0 SWAP1 DUP2 MSTORE PUSH1 0x5 PUSH1 0x20 MSTORE PUSH1 0x40 SWAP1 KECCAK256 SLOAD PUSH1 0xFF AND PUSH2 0x37A JUMPI PUSH1 0x40 MLOAD PUSH3 0x461BCD PUSH1 0xE5 SHL DUP2 MSTORE PUSH1 0x20 PUSH1 0x4 DUP3 ADD MSTORE PUSH1 0x18 PUSH1 0x24 DUP3 ADD MSTORE PUSH32 0x4E6F7420656C696769626C6520666F7220726577617264730000000000000000 PUSH1 0x44 DUP3 ADD MSTORE PUSH1 0x64 ADD JUMPDEST PUSH1 0x40 MLOAD DUP1 SWAP2 SUB SWAP1 REVERT JUMPDEST CALLER PUSH1 0x0 SWAP1 DUP2 MSTORE PUSH1 0x6 PUSH1 0x20 MSTORE PUSH1 0x40 SWAP1 KECCAK256 SLOAD PUSH1 0xFF AND ISZERO PUSH2 0x3DA JUMPI PUSH1 0x40 MLOAD PUSH3 0x461BCD PUSH1 0xE5 SHL DUP2 MSTORE PUSH1 0x20 PUSH1 0x4 DUP3 ADD MSTORE PUSH1 0x19 PUSH1 0x24 DUP3 ADD MSTORE PUSH32 0x416C726561647920636C61696D65642074686973207765656B00000000000000 PUSH1 0x44 DUP3 ADD MSTORE PUSH1 0x64 ADD PUSH2 0x371 JUMP JUMPDEST CALLER PUSH1 0x0 SWAP1 DUP2 MSTORE PUSH1 0x7 PUSH1 0x20 SWAP1 DUP2 MSTORE PUSH1 0x40 DUP1 DUP4 KECCAK256 SLOAD PUSH1 0x8 SWAP1 SWAP3 MSTORE SWAP1 SWAP2 KECCAK256 SLOAD DUP2 ISZERO ISZERO DUP1 PUSH2 0x404 JUMPI POP PUSH1 0x0 DUP2 GT JUMPDEST PUSH2 0x450 JUMPI PUSH1 0x40 MLOAD PUSH3 0x461BCD PUSH1 0xE5 SHL DUP2 MSTORE PUSH1 0x20 PUSH1 0x4 DUP3 ADD MSTORE PUSH1 0x14 PUSH1 0x24 DUP3 ADD MSTORE PUSH32 0x4E6F207265776172647320617661696C61626C65000000000000000000000000 PUSH1 0x44 DUP3 ADD MSTORE PUSH1 0x64 ADD PUSH2 0x371 JUMP JUMPDEST DUP2 PUSH1 0x2 SLOAD LT ISZERO DUP1 ISZERO PUSH2 0x464 JUMPI POP DUP1 PUSH1 0x3 SLOAD LT ISZERO JUMPDEST PUSH2 0x4B0 JUMPI PUSH1 0x40 MLOAD PUSH3 0x461BCD PUSH1 0xE5 SHL DUP2 MSTORE PUSH1 0x20 PUSH1 0x4 DUP3 ADD MSTORE PUSH1 0x12 PUSH1 0x24 DUP3 ADD MSTORE PUSH32 0x506F6F6C206973206E6F7420656E6F7567680000000000000000000000000000 PUSH1 0x44 DUP3 ADD MSTORE PUSH1 0x64 ADD PUSH2 0x371 JUMP JUMPDEST CALLER PUSH1 0x0 SWAP1 DUP2 MSTORE PUSH1 0x6 PUSH1 0x20 MSTORE PUSH1 0x40 SWAP1 KECCAK256 DUP1 SLOAD PUSH1 0xFF NOT AND PUSH1 0x1 OR SWAP1 SSTORE DUP2 ISZERO PUSH2 0x5AA JUMPI PUSH1 0x1 SLOAD PUSH1 0x40 MLOAD PUSH32 0xA9059CBB00000000000000000000000000000000000000000000000000000000 DUP2 MSTORE CALLER PUSH1 0x4 DUP3 ADD MSTORE PUSH1 0x24 DUP2 ADD DUP5 SWAP1 MSTORE PUSH1 0x1 PUSH1 0x1 PUSH1 0xA0 SHL SUB SWAP1 SWAP2 AND SWAP1 PUSH4 0xA9059CBB SWAP1 PUSH1 0x44 ADD PUSH1 0x20 PUSH1 0x40 MLOAD DUP1 DUP4 SUB DUP2 PUSH1 0x0 DUP8 GAS CALL ISZERO DUP1 ISZERO PUSH2 0x53A JUMPI RETURNDATASIZE PUSH1 0x0 DUP1 RETURNDATACOPY RETURNDATASIZE PUSH1 0x0 REVERT JUMPDEST POP POP POP POP PUSH1 0x40 MLOAD RETURNDATASIZE PUSH1 0x1F NOT PUSH1 0x1F DUP3 ADD AND DUP3 ADD DUP1 PUSH1 0x40 MSTORE POP DUP2 ADD SWAP1 PUSH2 0x55E SWAP2 SWAP1 PUSH2 0xDF1 JUMP JUMPDEST PUSH2 0x5AA JUMPI PUSH1 0x40 MLOAD PUSH3 0x461BCD PUSH1 0xE5 SHL DUP2 MSTORE PUSH1 0x20 PUSH1 0x4 DUP3 ADD MSTORE PUSH1 0x14 PUSH1 0x24 DUP3 ADD MSTORE PUSH32 0x424F5353207472616E73666572206661696C6564000000000000000000000000 PUSH1 0x44 DUP3 ADD MSTORE PUSH1 0x64 ADD PUSH2 0x371 JUMP JUMPDEST DUP1 ISZERO PUSH2 0x69A JUMPI DUP1 SELFBALANCE LT ISZERO PUSH2 0x600 JUMPI PUSH1 0x40 MLOAD PUSH3 0x461BCD PUSH1 0xE5 SHL DUP2 MSTORE PUSH1 0x20 PUSH1 0x4 DUP3 ADD MSTORE PUSH1 0x19 PUSH1 0x24 DUP3 ADD MSTORE PUSH32 0x496E73756666696369656E7420515541492062616C616E636500000000000000 PUSH1 0x44 DUP3 ADD MSTORE PUSH1 0x64 ADD PUSH2 0x371 JUMP JUMPDEST PUSH1 0x40 MLOAD PUSH1 0x0 SWAP1 CALLER SWAP1 DUP4 SWAP1 DUP4 DUP2 DUP2 DUP2 DUP6 DUP8 GAS CALL SWAP3 POP POP POP RETURNDATASIZE DUP1 PUSH1 0x0 DUP2 EQ PUSH2 0x642 JUMPI PUSH1 0x40 MLOAD SWAP2 POP PUSH1 0x1F NOT PUSH1 0x3F RETURNDATASIZE ADD AND DUP3 ADD PUSH1 0x40 MSTORE RETURNDATASIZE DUP3 MSTORE RETURNDATASIZE PUSH1 0x0 PUSH1 0x20 DUP5 ADD RETURNDATACOPY PUSH2 0x647 JUMP JUMPDEST PUSH1 0x60 SWAP2 POP JUMPDEST POP POP SWAP1 POP DUP1 PUSH2 0x698 JUMPI PUSH1 0x40 MLOAD PUSH3 0x461BCD PUSH1 0xE5 SHL DUP2 MSTORE PUSH1 0x20 PUSH1 0x4 DUP3 ADD MSTORE PUSH1 0x14 PUSH1 0x24 DUP3 ADD MSTORE PUSH32 0x51554149207472616E73666572206661696C6564000000000000000000000000 PUSH1 0x44 DUP3 ADD MSTORE PUSH1 0x64 ADD PUSH2 0x371 JUMP JUMPDEST POP JUMPDEST PUSH1 0x40 DUP1 MLOAD DUP4 DUP2 MSTORE PUSH1 0x20 DUP2 ADD DUP4 SWAP1 MSTORE CALLER SWAP2 PUSH32 0xDACBDDE355BA930696A362EA6738FEB9F8BD52DFB3D81947558FD3217E23E325 SWAP2 ADD PUSH1 0x40 MLOAD DUP1 SWAP2 SUB SWAP1 LOG2 POP POP JUMP JUMPDEST PUSH2 0x6E1 PUSH2 0xAEC JUMP JUMPDEST PUSH2 0x6E9 PUSH2 0xB32 JUMP JUMPDEST JUMP JUMPDEST PUSH2 0x6F3 PUSH2 0xAEC JUMP JUMPDEST DUP5 DUP4 EQ DUP1 ISZERO PUSH2 0x701 JUMPI POP DUP5 DUP2 EQ JUMPDEST PUSH2 0x74D JUMPI PUSH1 0x40 MLOAD PUSH3 0x461BCD PUSH1 0xE5 SHL DUP2 MSTORE PUSH1 0x20 PUSH1 0x4 DUP3 ADD MSTORE PUSH1 0x17 PUSH1 0x24 DUP3 ADD MSTORE PUSH32 0x4D69736D61746368656420696E70757420617272617973000000000000000000 PUSH1 0x44 DUP3 ADD MSTORE PUSH1 0x64 ADD PUSH2 0x371 JUMP JUMPDEST PUSH2 0x759 PUSH1 0x4 PUSH1 0x0 PUSH2 0xC6E JUMP JUMPDEST PUSH1 0x0 JUMPDEST DUP6 DUP2 LT ISZERO PUSH2 0x8EF JUMPI PUSH1 0x1 PUSH1 0x5 PUSH1 0x0 DUP10 DUP10 DUP6 DUP2 DUP2 LT PUSH2 0x77C JUMPI PUSH2 0x77C PUSH2 0xE13 JUMP JUMPDEST SWAP1 POP PUSH1 0x20 MUL ADD PUSH1 0x20 DUP2 ADD SWAP1 PUSH2 0x791 SWAP2 SWAP1 PUSH2 0xCA0 JUMP JUMPDEST PUSH1 0x1 PUSH1 0x1 PUSH1 0xA0 SHL SUB AND DUP2 MSTORE PUSH1 0x20 DUP2 ADD SWAP2 SWAP1 SWAP2 MSTORE PUSH1 0x40 ADD PUSH1 0x0 KECCAK256 DUP1 SLOAD PUSH1 0xFF NOT AND SWAP2 ISZERO ISZERO SWAP2 SWAP1 SWAP2 OR SWAP1 SSTORE DUP5 DUP5 DUP3 DUP2 DUP2 LT PUSH2 0x7CB JUMPI PUSH2 0x7CB PUSH2 0xE13 JUMP JUMPDEST SWAP1 POP PUSH1 0x20 MUL ADD CALLDATALOAD PUSH1 0x7 PUSH1 0x0 DUP10 DUP10 DUP6 DUP2 DUP2 LT PUSH2 0x7E8 JUMPI PUSH2 0x7E8 PUSH2 0xE13 JUMP JUMPDEST SWAP1 POP PUSH1 0x20 MUL ADD PUSH1 0x20 DUP2 ADD SWAP1 PUSH2 0x7FD SWAP2 SWAP1 PUSH2 0xCA0 JUMP JUMPDEST PUSH1 0x1 PUSH1 0x1 PUSH1 0xA0 SHL SUB AND DUP2 MSTORE PUSH1 0x20 DUP2 ADD SWAP2 SWAP1 SWAP2 MSTORE PUSH1 0x40 ADD PUSH1 0x0 KECCAK256 SSTORE DUP3 DUP3 DUP3 DUP2 DUP2 LT PUSH2 0x829 JUMPI PUSH2 0x829 PUSH2 0xE13 JUMP JUMPDEST SWAP1 POP PUSH1 0x20 MUL ADD CALLDATALOAD PUSH1 0x8 PUSH1 0x0 DUP10 DUP10 DUP6 DUP2 DUP2 LT PUSH2 0x846 JUMPI PUSH2 0x846 PUSH2 0xE13 JUMP JUMPDEST SWAP1 POP PUSH1 0x20 MUL ADD PUSH1 0x20 DUP2 ADD SWAP1 PUSH2 0x85B SWAP2 SWAP1 PUSH2 0xCA0 JUMP JUMPDEST PUSH1 0x1 PUSH1 0x1 PUSH1 0xA0 SHL SUB AND DUP2 MSTORE PUSH1 0x20 DUP2 ADD SWAP2 SWAP1 SWAP2 MSTORE PUSH1 0x40 ADD PUSH1 0x0 KECCAK256 SSTORE PUSH1 0x4 DUP8 DUP8 DUP4 DUP2 DUP2 LT PUSH2 0x889 JUMPI PUSH2 0x889 PUSH2 0xE13 JUMP JUMPDEST SWAP1 POP PUSH1 0x20 MUL ADD PUSH1 0x20 DUP2 ADD SWAP1 PUSH2 0x89E SWAP2 SWAP1 PUSH2 0xCA0 JUMP JUMPDEST DUP2 SLOAD PUSH1 0x1 DUP2 ADD DUP4 SSTORE PUSH1 0x0 SWAP3 DUP4 MSTORE PUSH1 0x20 SWAP1 SWAP3 KECCAK256 SWAP1 SWAP2 ADD DUP1 SLOAD PUSH20 0xFFFFFFFFFFFFFFFFFFFFFFFFFFFFFFFFFFFFFFFF NOT AND PUSH1 0x1 PUSH1 0x1 PUSH1 0xA0 SHL SUB SWAP1 SWAP3 AND SWAP2 SWAP1 SWAP2 OR SWAP1 SSTORE DUP1 PUSH2 0x8E7 DUP2 PUSH2 0xE3F JUMP JUMPDEST SWAP2 POP POP PUSH2 0x75C JUMP JUMPDEST POP POP POP POP POP POP POP JUMP JUMPDEST PUSH2 0x900 PUSH2 0xAEC JUMP JUMPDEST PUSH2 0x6E9 PUSH1 0x0 PUSH2 0xB92 JUMP JUMPDEST PUSH1 0x4 DUP2 DUP2 SLOAD DUP2 LT PUSH2 0x91A JUMPI PUSH1 0x0 DUP1 REVERT JUMPDEST PUSH1 0x0 SWAP2 DUP3 MSTORE PUSH1 0x20 SWAP1 SWAP2 KECCAK256 ADD SLOAD PUSH1 0x1 PUSH1 0x1 PUSH1 0xA0 SHL SUB AND SWAP1 POP DUP2 JUMP JUMPDEST PUSH2 0x93C PUSH2 0xAEC JUMP JUMPDEST PUSH1 0x1 DUP1 SLOAD PUSH20 0xFFFFFFFFFFFFFFFFFFFFFFFFFFFFFFFFFFFFFFFF NOT AND PUSH1 0x1 PUSH1 0x1 PUSH1 0xA0 SHL SUB SWAP3 SWAP1 SWAP3 AND SWAP2 SWAP1 SWAP2 OR SWAP1 SSTORE JUMP JUMPDEST PUSH2 0x973 PUSH2 0xAEC JUMP JUMPDEST PUSH1 0x0 JUMPDEST PUSH1 0x4 SLOAD DUP2 LT ISZERO PUSH2 0x9DF JUMPI PUSH1 0x0 PUSH1 0x6 PUSH1 0x0 PUSH1 0x4 DUP5 DUP2 SLOAD DUP2 LT PUSH2 0x999 JUMPI PUSH2 0x999 PUSH2 0xE13 JUMP JUMPDEST PUSH1 0x0 SWAP2 DUP3 MSTORE PUSH1 0x20 DUP1 DUP4 KECCAK256 SWAP2 SWAP1 SWAP2 ADD SLOAD PUSH1 0x1 PUSH1 0x1 PUSH1 0xA0 SHL SUB AND DUP4 MSTORE DUP3 ADD SWAP3 SWAP1 SWAP3 MSTORE PUSH1 0x40 ADD SWAP1 KECCAK256 DUP1 SLOAD PUSH1 0xFF NOT AND SWAP2 ISZERO ISZERO SWAP2 SWAP1 SWAP2 OR SWAP1 SSTORE DUP1 PUSH2 0x9D7 DUP2 PUSH2 0xE3F JUMP JUMPDEST SWAP2 POP POP PUSH2 0x976 JUMP JUMPDEST POP PUSH1 0x40 MLOAD PUSH32 0xFE483A50DF06C9CAC6296DB46F49ECDDAC4F870B5DBB4BDB29A0FEE24FF5EF75 SWAP1 PUSH1 0x0 SWAP1 LOG1 JUMP JUMPDEST PUSH2 0xA13 PUSH2 0xAEC JUMP JUMPDEST PUSH2 0x6E9 PUSH2 0xBEF JUMP JUMPDEST PUSH2 0xA23 PUSH2 0xAEC JUMP JUMPDEST PUSH2 0xA35 PUSH8 0xDE0B6B3A7640000 DUP4 PUSH2 0xE58 JUMP JUMPDEST PUSH1 0x2 SSTORE PUSH2 0xA4A PUSH8 0xDE0B6B3A7640000 DUP3 PUSH2 0xE58 JUMP JUMPDEST PUSH1 0x3 SSTORE POP POP JUMP JUMPDEST PUSH2 0xA59 PUSH2 0xAEC JUMP JUMPDEST PUSH1 0x1 PUSH1 0x1 PUSH1 0xA0 SHL SUB DUP2 AND PUSH2 0xA9C JUMPI PUSH1 0x40 MLOAD PUSH32 0x1E4FBDF700000000000000000000000000000000000000000000000000000000 DUP2 MSTORE PUSH1 0x0 PUSH1 0x4 DUP3 ADD MSTORE PUSH1 0x24 ADD PUSH2 0x371 JUMP JUMPDEST PUSH2 0xAA5 DUP2 PUSH2 0xB92 JUMP JUMPDEST POP JUMP JUMPDEST PUSH1 0x0 SLOAD PUSH1 0x1 PUSH1 0xA0 SHL SWAP1 DIV PUSH1 0xFF AND ISZERO PUSH2 0x6E9 JUMPI PUSH1 0x40 MLOAD PUSH32 0xD93C066500000000000000000000000000000000000000000000000000000000 DUP2 MSTORE PUSH1 0x4 ADD PUSH1 0x40 MLOAD DUP1 SWAP2 SUB SWAP1 REVERT JUMPDEST PUSH1 0x0 SLOAD PUSH1 0x1 PUSH1 0x1 PUSH1 0xA0 SHL SUB AND CALLER EQ PUSH2 0x6E9 JUMPI PUSH1 0x40 MLOAD PUSH32 0x118CDAA700000000000000000000000000000000000000000000000000000000 DUP2 MSTORE CALLER PUSH1 0x4 DUP3 ADD MSTORE PUSH1 0x24 ADD PUSH2 0x371 JUMP JUMPDEST PUSH2 0xB3A PUSH2 0xAA8 JUMP JUMPDEST PUSH1 0x0 DUP1 SLOAD PUSH1 0xFF PUSH1 0xA0 SHL NOT AND PUSH1 0x1 PUSH1 0xA0 SHL OR SWAP1 SSTORE PUSH32 0x62E78CEA01BEE320CD4E420270B5EA74000D11B0C9F74754EBDBFC544B05A258 PUSH2 0xB75 CALLER SWAP1 JUMP JUMPDEST PUSH1 0x40 MLOAD PUSH1 0x1 PUSH1 0x1 PUSH1 0xA0 SHL SUB SWAP1 SWAP2 AND DUP2 MSTORE PUSH1 0x20 ADD PUSH1 0x40 MLOAD DUP1 SWAP2 SUB SWAP1 LOG1 JUMP JUMPDEST PUSH1 0x0 DUP1 SLOAD PUSH1 0x1 PUSH1 0x1 PUSH1 0xA0 SHL SUB DUP4 DUP2 AND PUSH20 0xFFFFFFFFFFFFFFFFFFFFFFFFFFFFFFFFFFFFFFFF NOT DUP4 AND DUP2 OR DUP5 SSTORE PUSH1 0x40 MLOAD SWAP2 SWAP1 SWAP3 AND SWAP3 DUP4 SWAP2 PUSH32 0x8BE0079C531659141344CD1FD0A4F28419497F9722A3DAAFE3B4186F6B6457E0 SWAP2 SWAP1 LOG3 POP POP JUMP JUMPDEST PUSH2 0xBF7 PUSH2 0xC2B JUMP JUMPDEST PUSH1 0x0 DUP1 SLOAD PUSH1 0xFF PUSH1 0xA0 SHL NOT AND SWAP1 SSTORE PUSH32 0x5DB9EE0A495BF2E6FF9C91A7834C1BA4FDD244A5E8AA4E537BD38AEAE4B073AA CALLER PUSH2 0xB75 JUMP JUMPDEST PUSH1 0x0 SLOAD PUSH1 0x1 PUSH1 0xA0 SHL SWAP1 DIV PUSH1 0xFF AND PUSH2 0x6E9 JUMPI PUSH1 0x40 MLOAD PUSH32 0x8DFC202B00000000000000000000000000000000000000000000000000000000 DUP2 MSTORE PUSH1 0x4 ADD PUSH1 0x40 MLOAD DUP1 SWAP2 SUB SWAP1 REVERT JUMPDEST POP DUP1 SLOAD PUSH1 0x0 DUP3 SSTORE SWAP1 PUSH1 0x0 MSTORE PUSH1 0x20 PUSH1 0x0 KECCAK256 SWAP1 DUP2 ADD SWAP1 PUSH2 0xAA5 SWAP2 SWAP1 JUMPDEST DUP1 DUP3 GT ISZERO PUSH2 0xC9C JUMPI PUSH1 0x0 DUP2 SSTORE PUSH1 0x1 ADD PUSH2 0xC88 JUMP JUMPDEST POP SWAP1 JUMP JUMPDEST PUSH1 0x0 PUSH1 0x20 DUP3 DUP5 SUB SLT ISZERO PUSH2 0xCB2 JUMPI PUSH1 0x0 DUP1 REVERT JUMPDEST DUP2 CALLDATALOAD PUSH1 0x1 PUSH1 0x1 PUSH1 0xA0 SHL SUB DUP2 AND DUP2 EQ PUSH2 0xCC9 JUMPI PUSH1 0x0 DUP1 REVERT JUMPDEST SWAP4 SWAP3 POP POP POP JUMP JUMPDEST PUSH1 0x0 DUP1 DUP4 PUSH1 0x1F DUP5 ADD SLT PUSH2 0xCE2 JUMPI PUSH1 0x0 DUP1 REVERT JUMPDEST POP DUP2 CALLDATALOAD PUSH8 0xFFFFFFFFFFFFFFFF DUP2 GT ISZERO PUSH2 0xCFA JUMPI PUSH1 0x0 DUP1 REVERT JUMPDEST PUSH1 0x20 DUP4 ADD SWAP2 POP DUP4 PUSH1 0x20 DUP3 PUSH1 0x5 SHL DUP6 ADD ADD GT ISZERO PUSH2 0xD15 JUMPI PUSH1 0x0 DUP1 REVERT JUMPDEST SWAP3 POP SWAP3 SWAP1 POP JUMP JUMPDEST PUSH1 0x0 DUP1 PUSH1 0x0 DUP1 PUSH1 0x0 DUP1 PUSH1 0x60 DUP8 DUP10 SUB SLT ISZERO PUSH2 0xD35 JUMPI PUSH1 0x0 DUP1 REVERT JUMPDEST DUP7 CALLDATALOAD PUSH8 0xFFFFFFFFFFFFFFFF DUP1 DUP3 GT ISZERO PUSH2 0xD4D JUMPI PUSH1 0x0 DUP1 REVERT JUMPDEST PUSH2 0xD59 DUP11 DUP4 DUP12 ADD PUSH2 0xCD0 JUMP JUMPDEST SWAP1 SWAP9 POP SWAP7 POP PUSH1 0x20 DUP10 ADD CALLDATALOAD SWAP2 POP DUP1 DUP3 GT ISZERO PUSH2 0xD72 JUMPI PUSH1 0x0 DUP1 REVERT JUMPDEST PUSH2 0xD7E DUP11 DUP4 DUP12 ADD PUSH2 0xCD0 JUMP JUMPDEST SWAP1 SWAP7 POP SWAP5 POP PUSH1 0x40 DUP10 ADD CALLDATALOAD SWAP2 POP DUP1 DUP3 GT ISZERO PUSH2 0xD97 JUMPI PUSH1 0x0 DUP1 REVERT JUMPDEST POP PUSH2 0xDA4 DUP10 DUP3 DUP11 ADD PUSH2 0xCD0 JUMP JUMPDEST SWAP8 SWAP11 SWAP7 SWAP10 POP SWAP5 SWAP8 POP SWAP3 SWAP6 SWAP4 SWAP5 SWAP3 POP POP POP JUMP JUMPDEST PUSH1 0x0 PUSH1 0x20 DUP3 DUP5 SUB SLT ISZERO PUSH2 0xDC8 JUMPI PUSH1 0x0 DUP1 REVERT JUMPDEST POP CALLDATALOAD SWAP2 SWAP1 POP JUMP JUMPDEST PUSH1 0x0 DUP1 PUSH1 0x40 DUP4 DUP6 SUB SLT ISZERO PUSH2 0xDE2 JUMPI PUSH1 0x0 DUP1 REVERT JUMPDEST POP POP DUP1 CALLDATALOAD SWAP3 PUSH1 0x20 SWAP1 SWAP2 ADD CALLDATALOAD SWAP2 POP JUMP JUMPDEST PUSH1 0x0 PUSH1 0x20 DUP3 DUP5 SUB SLT ISZERO PUSH2 0xE03 JUMPI PUSH1 0x0 DUP1 REVERT JUMPDEST DUP2 MLOAD DUP1 ISZERO ISZERO DUP2 EQ PUSH2 0xCC9 JUMPI PUSH1 0x0 DUP1 REVERT JUMPDEST PUSH4 0x4E487B71 PUSH1 0xE0 SHL PUSH1 0x0 MSTORE PUSH1 0x32 PUSH1 0x4 MSTORE PUSH1 0x24 PUSH1 0x0 REVERT JUMPDEST PUSH4 0x4E487B71 PUSH1 0xE0 SHL PUSH1 0x0 MSTORE PUSH1 0x11 PUSH1 0x4 MSTORE PUSH1 0x24 PUSH1 0x0 REVERT JUMPDEST PUSH1 0x0 PUSH1 0x1 DUP3 ADD PUSH2 0xE51 JUMPI PUSH2 0xE51 PUSH2 0xE29 JUMP JUMPDEST POP PUSH1 0x1 ADD SWAP1 JUMP JUMPDEST DUP1 DUP3 MUL DUP2 ISZERO DUP3 DUP3 DIV DUP5 EQ OR PUSH2 0xE6F JUMPI PUSH2 0xE6F PUSH2 0xE29 JUMP JUMPDEST SWAP3 SWAP2 POP POP JUMP INVALID LOG2 PUSH5 0x6970667358 0x22 SLT KECCAK256 SHR GT 0xF7 PUSH7 0xBB008001D67A46 SWAP5 SWAP16 PUSH24 0x73C60189CAE01B0164B624A0734507549FB564736F6C6343 STOP ADDMOD GT STOP CALLER "},"methodIdentifiers":{"BOSS_REWARD_POOL()":"340d7606","QUAI_REWARD_POOL()":"b17d36bf","bossToken()":"a60e40e5","claimRewards()":"372500ab","claimableBOSS(address)":"2a2bb991","claimableQUAI(address)":"c574c2e3","claimers(uint256)":"99ae559d","eligibleClaimers(address)":"2e4c3f62","hasClaimedThisWeek(address)":"7a57823f","multiplier()":"1b3ed722","owner()":"8da5cb5b","pauseContract()":"439766ce","paused()":"5c975abb","renounceOwnership()":"715018a6","resetWeeklyClaims()":"a14e10dd","setEligibleClaimers(address[],uint256[],uint256[])":"500574d3","transferOwnership(address)":"f2fde38b","unpauseContract()":"b33712c5","updateRewardPool(uint256,uint256)":"dfaff1b8","updateRewardTokens(address)":"9f08e497"}},"storageLayout":{"storage":[{"astId":3695,"contract":"contracts/FlappyDistributor.sol:FlappyDistributor","label":"_owner","offset":0,"slot":"0","type":"t_address"},{"astId":3895,"contract":"contracts/FlappyDistributor.sol:FlappyDistributor","label":"_paused","offset":20,"slot":"0","type":"t_bool"},{"astId":1461,"contract":"contracts/FlappyDistributor.sol:FlappyDistributor","label":"bossToken","offset":0,"slot":"1","type":"t_contract(IERC20)2408"},{"astId":1463,"contract":"contracts/FlappyDistributor.sol:FlappyDistributor","label":"BOSS_REWARD_POOL","offset":0,"slot":"2","type":"t_uint256"},{"astId":1465,"contract":"contracts/FlappyDistributor.sol:FlappyDistributor","label":"QUAI_REWARD_POOL","offset":0,"slot":"3","type":"t_uint256"},{"astId":1473,"contract":"contracts/FlappyDistributor.sol:FlappyDistributor","label":"claimers","offset":0,"slot":"4","type":"t_array(t_address)dyn_storage"},{"astId":1477,"contract":"contracts/FlappyDistributor.sol:FlappyDistributor","label":"eligibleClaimers","offset":0,"slot":"5","type":"t_mapping(t_address,t_bool)"},{"astId":1481,"contract":"contracts/FlappyDistributor.sol:FlappyDistributor","label":"hasClaimedThisWeek","offset":0,"slot":"6","type":"t_mapping(t_address,t_bool)"},{"astId":1485,"contract":"contracts/FlappyDistributor.sol:FlappyDistributor","label":"claimableBOSS","offset":0,"slot":"7","type":"t_mapping(t_address,t_uint256)"},{"astId":1489,"contract":"contracts/FlappyDistributor.sol:FlappyDistributor","label":"claimableQUAI","offset":0,"slot":"8","type":"t_mapping(t_address,t_uint256)"}],"types":{"t_address":{"encoding":"inplace","label":"address","numberOfBytes":"20"},"t_array(t_address)dyn_storage":{"base":"t_address","encoding":"dynamic_array","label":"address[]","numberOfBytes":"32"},"t_bool":{"encoding":"inplace","label":"bool","numberOfBytes":"1"},"t_contract(IERC20)2408":{"encoding":"inplace","label":"contract IERC20","numberOfBytes":"20"},"t_mapping(t_address,t_bool)":{"encoding":"mapping","key":"t_address","label":"mapping(address => bool)","numberOfBytes":"32","value":"t_bool"},"t_mapping(t_address,t_uint256)":{"encoding":"mapping","key":"t_address","label":"mapping(address => uint256)","numberOfBytes":"32","value":"t_uint256"},"t_uint256":{"encoding":"inplace","label":"uint256","numberOfBytes":"32"}}}}}}