{
  "_format": "hh-sol-artifact-1",
  "contractName": "FlappyStaking",
  "sourceName": "contracts/FlappyStaking.sol",
  "abi": [
    {
      "inputs": [
        {
          "internalType": "address",
          "name": "_bossToken",
          "type": "address"
        },
        {
          "internalType": "address",
          "name": "_feeWallet",
          "type": "address"
        }
      ],
      "stateMutability": "nonpayable",
      "type": "constructor"
    },
    {
      "inputs": [],
      "name": "EnforcedPause",
      "type": "error"
    },
    {
      "inputs": [],
      "name": "ExpectedPause",
      "type": "error"
    },
    {
      "inputs": [
        {
          "internalType": "address",
          "name": "owner",
          "type": "address"
        }
      ],
      "name": "OwnableInvalidOwner",
      "type": "error"
    },
    {
      "inputs": [
        {
          "internalType": "address",
          "name": "account",
          "type": "address"
        }
      ],
      "name": "OwnableUnauthorizedAccount",
      "type": "error"
    },
    {
      "anonymous": false,
      "inputs": [
        {
          "indexed": false,
          "internalType": "address",
          "name": "wallet",
          "type": "address"
        },
        {
          "indexed": false,
          "internalType": "uint256",
          "name": "timestamp",
          "type": "uint256"
        }
      ],
      "name": "FeeWalletUpdated",
      "type": "event"
    },
    {
      "anonymous": false,
      "inputs": [
        {
          "indexed": false,
          "internalType": "uint256",
          "name": "stakingFee",
          "type": "uint256"
        },
        {
          "indexed": false,
          "internalType": "uint256",
          "name": "unlockFee",
          "type": "uint256"
        },
        {
          "indexed": false,
          "internalType": "uint256",
          "name": "timestamp",
          "type": "uint256"
        }
      ],
      "name": "FeesUpdated",
      "type": "event"
    },
    {
      "anonymous": false,
      "inputs": [
        {
          "indexed": true,
          "internalType": "address",
          "name": "previousOwner",
          "type": "address"
        },
        {
          "indexed": true,
          "internalType": "address",
          "name": "newOwner",
          "type": "address"
        }
      ],
      "name": "OwnershipTransferred",
      "type": "event"
    },
    {
      "anonymous": false,
      "inputs": [
        {
          "indexed": false,
          "internalType": "address",
          "name": "account",
          "type": "address"
        }
      ],
      "name": "Paused",
      "type": "event"
    },
    {
      "anonymous": false,
      "inputs": [
        {
          "indexed": false,
          "internalType": "uint256",
          "name": "rate",
          "type": "uint256"
        },
        {
          "indexed": false,
          "internalType": "uint256",
          "name": "timestamp",
          "type": "uint256"
        }
      ],
      "name": "RewardRateUpdated",
      "type": "event"
    },
    {
      "anonymous": false,
      "inputs": [
        {
          "indexed": true,
          "internalType": "address",
          "name": "user",
          "type": "address"
        },
        {
          "indexed": false,
          "internalType": "uint256",
          "name": "amount",
          "type": "uint256"
        }
      ],
      "name": "RewardsClaimed",
      "type": "event"
    },
    {
      "anonymous": false,
      "inputs": [
        {
          "indexed": true,
          "internalType": "address",
          "name": "user",
          "type": "address"
        },
        {
          "indexed": false,
          "internalType": "uint256",
          "name": "amount",
          "type": "uint256"
        }
      ],
      "name": "Staked",
      "type": "event"
    },
    {
      "anonymous": false,
      "inputs": [
        {
          "indexed": false,
          "internalType": "uint256",
          "name": "period",
          "type": "uint256"
        },
        {
          "indexed": false,
          "internalType": "uint256",
          "name": "timestamp",
          "type": "uint256"
        }
      ],
      "name": "UnlockPeriodUpdated",
      "type": "event"
    },
    {
      "anonymous": false,
      "inputs": [
        {
          "indexed": true,
          "internalType": "address",
          "name": "user",
          "type": "address"
        }
      ],
      "name": "Unlocked",
      "type": "event"
    },
    {
      "anonymous": false,
      "inputs": [
        {
          "indexed": false,
          "internalType": "address",
          "name": "account",
          "type": "address"
        }
      ],
      "name": "Unpaused",
      "type": "event"
    },
    {
      "anonymous": false,
      "inputs": [
        {
          "indexed": true,
          "internalType": "address",
          "name": "user",
          "type": "address"
        },
        {
          "indexed": false,
          "internalType": "uint256",
          "name": "amount",
          "type": "uint256"
        }
      ],
      "name": "Withdrawn",
      "type": "event"
    },
    {
      "inputs": [],
      "name": "REWARD_RATE",
      "outputs": [
        {
          "internalType": "uint256",
          "name": "",
          "type": "uint256"
        }
      ],
      "stateMutability": "view",
      "type": "function"
    },
    {
      "inputs": [],
      "name": "STAKING_FEE",
      "outputs": [
        {
          "internalType": "uint256",
          "name": "",
          "type": "uint256"
        }
      ],
      "stateMutability": "view",
      "type": "function"
    },
    {
      "inputs": [],
      "name": "UNLOCK_FEE",
      "outputs": [
        {
          "internalType": "uint256",
          "name": "",
          "type": "uint256"
        }
      ],
      "stateMutability": "view",
      "type": "function"
    },
    {
      "inputs": [],
      "name": "UNLOCK_PERIOD",
      "outputs": [
        {
          "internalType": "uint256",
          "name": "",
          "type": "uint256"
        }
      ],
      "stateMutability": "view",
      "type": "function"
    },
    {
      "inputs": [],
      "name": "bossToken",
      "outputs": [
        {
          "internalType": "contract IERC20",
          "name": "",
          "type": "address"
        }
      ],
      "stateMutability": "view",
      "type": "function"
    },
    {
      "inputs": [],
      "name": "claimRewards",
      "outputs": [],
      "stateMutability": "nonpayable",
      "type": "function"
    },
    {
      "inputs": [],
      "name": "fee_wallet",
      "outputs": [
        {
          "internalType": "address",
          "name": "",
          "type": "address"
        }
      ],
      "stateMutability": "view",
      "type": "function"
    },
    {
      "inputs": [],
      "name": "getClaimableRewards",
      "outputs": [
        {
          "internalType": "uint256",
          "name": "",
          "type": "uint256"
        }
      ],
      "stateMutability": "view",
      "type": "function"
    },
    {
      "inputs": [],
      "name": "owner",
      "outputs": [
        {
          "internalType": "address",
          "name": "",
          "type": "address"
        }
      ],
      "stateMutability": "view",
      "type": "function"
    },
    {
      "inputs": [],
      "name": "paused",
      "outputs": [
        {
          "internalType": "bool",
          "name": "",
          "type": "bool"
        }
      ],
      "stateMutability": "view",
      "type": "function"
    },
    {
      "inputs": [],
      "name": "renounceOwnership",
      "outputs": [],
      "stateMutability": "nonpayable",
      "type": "function"
    },
    {
      "inputs": [
        {
          "internalType": "uint256",
          "name": "amount",
          "type": "uint256"
        }
      ],
      "name": "stake",
      "outputs": [],
      "stateMutability": "nonpayable",
      "type": "function"
    },
    {
      "inputs": [
        {
          "internalType": "address",
          "name": "",
          "type": "address"
        }
      ],
      "name": "stakes",
      "outputs": [
        {
          "internalType": "uint256",
          "name": "amount",
          "type": "uint256"
        },
        {
          "internalType": "uint256",
          "name": "startTime",
          "type": "uint256"
        },
        {
          "internalType": "uint256",
          "name": "claimedRewards",
          "type": "uint256"
        },
        {
          "internalType": "uint256",
          "name": "unlockTime",
          "type": "uint256"
        }
      ],
      "stateMutability": "view",
      "type": "function"
    },
    {
      "inputs": [
        {
          "internalType": "address",
          "name": "newOwner",
          "type": "address"
        }
      ],
      "name": "transferOwnership",
      "outputs": [],
      "stateMutability": "nonpayable",
      "type": "function"
    },
    {
      "inputs": [],
      "name": "unlock",
      "outputs": [],
      "stateMutability": "nonpayable",
      "type": "function"
    },
    {
      "inputs": [
        {
          "internalType": "address",
          "name": "_bossToken",
          "type": "address"
        }
      ],
      "name": "updateBossToken",
      "outputs": [],
      "stateMutability": "nonpayable",
      "type": "function"
    },
    {
      "inputs": [
        {
          "internalType": "address",
          "name": "_feeWallet",
          "type": "address"
        }
      ],
      "name": "updateFeeWallet",
      "outputs": [],
      "stateMutability": "nonpayable",
      "type": "function"
    },
    {
      "inputs": [
        {
          "internalType": "uint256",
          "name": "_stakingFee",
          "type": "uint256"
        },
        {
          "internalType": "uint256",
          "name": "_unlockFee",
          "type": "uint256"
        }
      ],
      "name": "updateFees",
      "outputs": [],
      "stateMutability": "nonpayable",
      "type": "function"
    },
    {
      "inputs": [
        {
          "internalType": "uint256",
          "name": "_rewardRate",
          "type": "uint256"
        }
      ],
      "name": "updateRewardRate",
      "outputs": [],
      "stateMutability": "nonpayable",
      "type": "function"
    },
    {
      "inputs": [
        {
          "internalType": "uint256",
          "name": "_unlockPeriod",
          "type": "uint256"
        }
      ],
      "name": "updateUnlockPeriod",
      "outputs": [],
      "stateMutability": "nonpayable",
      "type": "function"
    },
    {
      "inputs": [],
      "name": "withdraw",
      "outputs": [],
      "stateMutability": "nonpayable",
      "type": "function"
    }
  ],
  "bytecode": "0x608060405234801561001057600080fd5b50604051610fa3380380610fa383398101604081905261002f91610111565b338061005557604051631e4fbdf760e01b81526000600482015260240160405180910390fd5b61005e816100a5565b50600180546001600160a01b039384166001600160a01b0319918216179091556002805492909316911617815560038190556004556103e860055562093a80600655610144565b600080546001600160a01b038381166001600160a01b0319831681178455604051919092169283917f8be0079c531659141344cd1fd0a4f28419497f9722a3daafe3b4186f6b6457e09190a35050565b80516001600160a01b038116811461010c57600080fd5b919050565b6000806040838503121561012457600080fd5b61012d836100f5565b915061013b602084016100f5565b90509250929050565b610e50806101536000396000f3fe608060405234801561001057600080fd5b50600436106101775760003560e01c8063836dfd5a116100d8578063a69df4b51161008c578063c919b0c411610066578063c919b0c4146102f1578063f2fde38b14610304578063ffe0cbc61461031757600080fd5b8063a69df4b5146102c3578063b5f943b4146102cb578063c51955f5146102de57600080fd5b80639ef3a261116100bd5780639ef3a2611461028a578063a60e40e51461029d578063a694fc3a146102b057600080fd5b8063836dfd5a1461025c5780638da5cb5b1461026557600080fd5b80635997bb371161012f5780636671852411610114578063667185241461022e5780636db7943714610241578063715018a61461025457600080fd5b80635997bb37146102085780635c975abb1461021157600080fd5b8063372500ab11610160578063372500ab146101ed5780633ccfd60b146101f757806355482e72146101ff57600080fd5b806316934fc41461017c578063259a28cf146101d6575b600080fd5b6101b161018a366004610d12565b60076020526000908152604090208054600182015460028301546003909301549192909184565b6040805194855260208501939093529183015260608201526080015b60405180910390f35b6101df60065481565b6040519081526020016101cd565b6101f561031f565b005b6101f56104e1565b6101df60045481565b6101df60055481565b600054600160a01b900460ff1660405190151581526020016101cd565b6101f561023c366004610d12565b61064f565b6101f561024f366004610d42565b6106be565b6101f5610713565b6101df60035481565b6000546001600160a01b03165b6040516001600160a01b0390911681526020016101cd565b6101f5610298366004610d64565b610727565b600154610272906001600160a01b031681565b6101f56102be366004610d64565b610769565b6101f561094c565b6101f56102d9366004610d64565b610aba565b600254610272906001600160a01b031681565b6101f56102ff366004610d12565b610afc565b6101f5610312366004610d12565b610b33565b6101df610b8a565b610327610c2b565b336000908152600760205260409020805461037b5760405162461bcd60e51b815260206004820152600f60248201526e4e6f20616374697665207374616b6560881b60448201526064015b60405180910390fd5b600081600101544261038d9190610d93565b9050600061039e6201518083610dac565b60055484546103b190620f424090610dac565b6103bb9190610dce565b6103c59190610dce565b9050600081116104175760405162461bcd60e51b815260206004820152601460248201527f4e6f207265776172647320617661696c61626c650000000000000000000000006044820152606401610372565b8083600201600082825461042b9190610de5565b909155505060015460405163a9059cbb60e01b8152336004820152602481018390526001600160a01b039091169063a9059cbb906044016020604051808303816000875af1158015610481573d6000803e3d6000fd5b505050506040513d601f19601f820116820180604052508101906104a59190610df8565b5060405181815233907ffc30cddea38e2bf4d6ea7d3f9ed3b6ad7f176419f4963bd81318067a4aee73fe906020015b60405180910390a2505050565b6104e9610c2b565b336000908152600760205260409020600381015442101561054c5760405162461bcd60e51b815260206004820152601560248201527f556e6c6f636b20706572696f64206e6f74206d657400000000000000000000006044820152606401610372565b805461059a5760405162461bcd60e51b815260206004820152601460248201527f4e6f2066756e647320746f2077697468647261770000000000000000000000006044820152606401610372565b80546000825560015460405163a9059cbb60e01b8152336004820152602481018390526001600160a01b039091169063a9059cbb906044016020604051808303816000875af11580156105f1573d6000803e3d6000fd5b505050506040513d601f19601f820116820180604052508101906106159190610df8565b5060405181815233907f7084f5476618d8e60b11ef0d7d3f06914655adb8793e28ff7f018d4c76d505d59060200160405180910390a25050565b610657610c6f565b6002805473ffffffffffffffffffffffffffffffffffffffff19166001600160a01b038316908117909155604080519182524260208301527f1d3643e0dfc938dc90443be0653976f2d584f3284058bbc4d307eaf855fce6ea91015b60405180910390a150565b6106c6610c6f565b600382905560048190556040805183815260208101839052428183015290517fcf8a1e1d5f09cf3c97dbb653cd9a4d7aace9292fbc1bb8211febf2d400febbdd9181900360600190a15050565b61071b610c6f565b6107256000610cb5565b565b61072f610c6f565b6005819055604080518281524260208201527fc390a98ace15a7bb6bab611eedfdbb2685043b241a869420043cdfb23ccfee5091016106b3565b600081116107b95760405162461bcd60e51b815260206004820181905260248201527f416d6f756e74206d7573742062652067726561746572207468616e207a65726f6044820152606401610372565b60006064600354836107cb9190610dce565b6107d59190610dac565b905060006107e38284610d93565b6001546040516323b872dd60e01b8152336004820152306024820152604481018390529192506001600160a01b0316906323b872dd906064016020604051808303816000875af115801561083b573d6000803e3d6000fd5b505050506040513d601f19601f8201168201806040525081019061085f9190610df8565b506001546002546040516323b872dd60e01b81523360048201526001600160a01b039182166024820152604481018590529116906323b872dd906064016020604051808303816000875af11580156108bb573d6000803e3d6000fd5b505050506040513d601f19601f820116820180604052508101906108df9190610df8565b5033600090815260076020526040812080548392906108ff908490610de5565b9091555050336000818152600760205260409081902042600190910155517f9e71bc8eea02a63969f509818f2dafb9254532904319f9dbda79b67bd34a5f3d906104d49084815260200190565b3360009081526007602052604090205461099a5760405162461bcd60e51b815260206004820152600f60248201526e4e6f20616374697665207374616b6560881b6044820152606401610372565b6004543360009081526007602052604081205490916064916109bc9190610dce565b6109c69190610dac565b6001546002546040516323b872dd60e01b81523060048201526001600160a01b0391821660248201526044810184905292935016906323b872dd906064016020604051808303816000875af1158015610a23573d6000803e3d6000fd5b505050506040513d601f19601f82011682018060405250810190610a479190610df8565b503360009081526007602052604081208054839290610a67908490610d93565b9091555050600654610a799042610de5565b3360008181526007602052604080822060030193909355915190917f7e6adfec7e3f286831a0200a754127c171a2da564078722cb97704741bbdb0ea91a250565b610ac2610c6f565b6006819055604080518281524260208201527faa1e10941c3aafb56ad74dad40ea5ec52cf44d83495362e44c775124edb040f591016106b3565b610b04610c6f565b6001805473ffffffffffffffffffffffffffffffffffffffff19166001600160a01b0392909216919091179055565b610b3b610c6f565b6001600160a01b038116610b7e576040517f1e4fbdf700000000000000000000000000000000000000000000000000000000815260006004820152602401610372565b610b8781610cb5565b50565b3360009081526007602052604081208054610bd95760405162461bcd60e51b815260206004820152600f60248201526e4e6f20616374697665207374616b6560881b6044820152606401610372565b6000816001015442610beb9190610d93565b90506000610bfc6201518083610dac565b6005548454610c0f90620f424090610dac565b610c199190610dce565b610c239190610dce565b949350505050565b600054600160a01b900460ff1615610725576040517fd93c066500000000000000000000000000000000000000000000000000000000815260040160405180910390fd5b6000546001600160a01b03163314610725576040517f118cdaa7000000000000000000000000000000000000000000000000000000008152336004820152602401610372565b600080546001600160a01b0383811673ffffffffffffffffffffffffffffffffffffffff19831681178455604051919092169283917f8be0079c531659141344cd1fd0a4f28419497f9722a3daafe3b4186f6b6457e09190a35050565b600060208284031215610d2457600080fd5b81356001600160a01b0381168114610d3b57600080fd5b9392505050565b60008060408385031215610d5557600080fd5b50508035926020909101359150565b600060208284031215610d7657600080fd5b5035919050565b634e487b7160e01b600052601160045260246000fd5b81810381811115610da657610da6610d7d565b92915050565b600082610dc957634e487b7160e01b600052601260045260246000fd5b500490565b8082028115828204841417610da657610da6610d7d565b80820180821115610da657610da6610d7d565b600060208284031215610e0a57600080fd5b81518015158114610d3b57600080fdfea2646970667358221220819515aee89f51f9e1f78b44bddedd2b0245fdfd5545180061b710fe9815638164736f6c63430008110033",
  "linkReferences": {},
  "deployedLinkReferences": {}
}