{
  "_format": "hh-sol-artifact-1",
  "contractName": "FlappyDistributor",
  "sourceName": "contracts/FlappyDistributor.sol",
  "abi": [
    {
      "inputs": [
        {
          "internalType": "address",
          "name": "_bossToken",
          "type": "address"
        }
      ],
      "stateMutability": "nonpayable",
      "type": "constructor"
    },
    {
      "inputs": [],
      "name": "EnforcedPause",
      "type": "error"
    },
    {
      "inputs": [],
      "name": "ExpectedPause",
      "type": "error"
    },
    {
      "inputs": [
        {
          "internalType": "address",
          "name": "owner",
          "type": "address"
        }
      ],
      "name": "OwnableInvalidOwner",
      "type": "error"
    },
    {
      "inputs": [
        {
          "internalType": "address",
          "name": "account",
          "type": "address"
        }
      ],
      "name": "OwnableUnauthorizedAccount",
      "type": "error"
    },
    {
      "anonymous": false,
      "inputs": [
        {
          "indexed": true,
          "internalType": "address",
          "name": "previousOwner",
          "type": "address"
        },
        {
          "indexed": true,
          "internalType": "address",
          "name": "newOwner",
          "type": "address"
        }
      ],
      "name": "OwnershipTransferred",
      "type": "event"
    },
    {
      "anonymous": false,
      "inputs": [
        {
          "indexed": false,
          "internalType": "address",
          "name": "account",
          "type": "address"
        }
      ],
      "name": "Paused",
      "type": "event"
    },
    {
      "anonymous": false,
      "inputs": [
        {
          "indexed": true,
          "internalType": "address",
          "name": "claimer",
          "type": "address"
        },
        {
          "indexed": false,
          "internalType": "uint256",
          "name": "bossAmount",
          "type": "uint256"
        },
        {
          "indexed": false,
          "internalType": "uint256",
          "name": "quaiAmount",
          "type": "uint256"
        }
      ],
      "name": "RewardsClaimed",
      "type": "event"
    },
    {
      "anonymous": false,
      "inputs": [
        {
          "indexed": false,
          "internalType": "address",
          "name": "account",
          "type": "address"
        }
      ],
      "name": "Unpaused",
      "type": "event"
    },
    {
      "anonymous": false,
      "inputs": [],
      "name": "WeeklyClaimsReset",
      "type": "event"
    },
    {
      "inputs": [],
      "name": "BOSS_REWARD_POOL",
      "outputs": [
        {
          "internalType": "uint256",
          "name": "",
          "type": "uint256"
        }
      ],
      "stateMutability": "view",
      "type": "function"
    },
    {
      "inputs": [],
      "name": "QUAI_REWARD_POOL",
      "outputs": [
        {
          "internalType": "uint256",
          "name": "",
          "type": "uint256"
        }
      ],
      "stateMutability": "view",
      "type": "function"
    },
    {
      "inputs": [],
      "name": "bossToken",
      "outputs": [
        {
          "internalType": "contract IERC20",
          "name": "",
          "type": "address"
        }
      ],
      "stateMutability": "view",
      "type": "function"
    },
    {
      "inputs": [],
      "name": "claimRewards",
      "outputs": [],
      "stateMutability": "nonpayable",
      "type": "function"
    },
    {
      "inputs": [
        {
          "internalType": "address",
          "name": "",
          "type": "address"
        }
      ],
      "name": "claimableBOSS",
      "outputs": [
        {
          "internalType": "uint256",
          "name": "",
          "type": "uint256"
        }
      ],
      "stateMutability": "view",
      "type": "function"
    },
    {
      "inputs": [
        {
          "internalType": "address",
          "name": "",
          "type": "address"
        }
      ],
      "name": "claimableQUAI",
      "outputs": [
        {
          "internalType": "uint256",
          "name": "",
          "type": "uint256"
        }
      ],
      "stateMutability": "view",
      "type": "function"
    },
    {
      "inputs": [
        {
          "internalType": "uint256",
          "name": "",
          "type": "uint256"
        }
      ],
      "name": "claimers",
      "outputs": [
        {
          "internalType": "address",
          "name": "",
          "type": "address"
        }
      ],
      "stateMutability": "view",
      "type": "function"
    },
    {
      "inputs": [
        {
          "internalType": "address",
          "name": "",
          "type": "address"
        }
      ],
      "name": "eligibleClaimers",
      "outputs": [
        {
          "internalType": "bool",
          "name": "",
          "type": "bool"
        }
      ],
      "stateMutability": "view",
      "type": "function"
    },
    {
      "inputs": [
        {
          "internalType": "address",
          "name": "",
          "type": "address"
        }
      ],
      "name": "hasClaimedThisWeek",
      "outputs": [
        {
          "internalType": "bool",
          "name": "",
          "type": "bool"
        }
      ],
      "stateMutability": "view",
      "type": "function"
    },
    {
      "inputs": [],
      "name": "multiplier",
      "outputs": [
        {
          "internalType": "uint256",
          "name": "",
          "type": "uint256"
        }
      ],
      "stateMutability": "view",
      "type": "function"
    },
    {
      "inputs": [],
      "name": "owner",
      "outputs": [
        {
          "internalType": "address",
          "name": "",
          "type": "address"
        }
      ],
      "stateMutability": "view",
      "type": "function"
    },
    {
      "inputs": [],
      "name": "pauseContract",
      "outputs": [],
      "stateMutability": "nonpayable",
      "type": "function"
    },
    {
      "inputs": [],
      "name": "paused",
      "outputs": [
        {
          "internalType": "bool",
          "name": "",
          "type": "bool"
        }
      ],
      "stateMutability": "view",
      "type": "function"
    },
    {
      "inputs": [],
      "name": "renounceOwnership",
      "outputs": [],
      "stateMutability": "nonpayable",
      "type": "function"
    },
    {
      "inputs": [],
      "name": "resetWeeklyClaims",
      "outputs": [],
      "stateMutability": "nonpayable",
      "type": "function"
    },
    {
      "inputs": [
        {
          "internalType": "address[]",
          "name": "_claimers",
          "type": "address[]"
        },
        {
          "internalType": "uint256[]",
          "name": "bossAmounts",
          "type": "uint256[]"
        },
        {
          "internalType": "uint256[]",
          "name": "quaiAmounts",
          "type": "uint256[]"
        }
      ],
      "name": "setEligibleClaimers",
      "outputs": [],
      "stateMutability": "nonpayable",
      "type": "function"
    },
    {
      "inputs": [
        {
          "internalType": "address",
          "name": "newOwner",
          "type": "address"
        }
      ],
      "name": "transferOwnership",
      "outputs": [],
      "stateMutability": "nonpayable",
      "type": "function"
    },
    {
      "inputs": [],
      "name": "unpauseContract",
      "outputs": [],
      "stateMutability": "nonpayable",
      "type": "function"
    },
    {
      "inputs": [
        {
          "internalType": "uint256",
          "name": "_BOSS_REWARD_POOL",
          "type": "uint256"
        },
        {
          "internalType": "uint256",
          "name": "_QUAI_REWARD_POOL",
          "type": "uint256"
        }
      ],
      "name": "updateRewardPool",
      "outputs": [],
      "stateMutability": "nonpayable",
      "type": "function"
    },
    {
      "inputs": [
        {
          "internalType": "address",
          "name": "_bossToken",
          "type": "address"
        }
      ],
      "name": "updateRewardTokens",
      "outputs": [],
      "stateMutability": "nonpayable",
      "type": "function"
    }
  ],
  "bytecode": "0x608060405234801561001057600080fd5b5060405161101238038061101283398101604081905261002f916100fd565b338061005557604051631e4fbdf760e01b81526000600482015260240160405180910390fd5b61005e816100ad565b50600180546001600160a01b0319166001600160a01b03831617905561008e670de0b6b3a7640000614e2061012d565b6002556100a4670de0b6b3a7640000600a61012d565b60035550610158565b600080546001600160a01b038381166001600160a01b0319831681178455604051919092169283917f8be0079c531659141344cd1fd0a4f28419497f9722a3daafe3b4186f6b6457e09190a35050565b60006020828403121561010f57600080fd5b81516001600160a01b038116811461012657600080fd5b9392505050565b808202811582820484141761015257634e487b7160e01b600052601160045260246000fd5b92915050565b610eab806101676000396000f3fe608060405234801561001057600080fd5b506004361061016c5760003560e01c80638da5cb5b116100cd578063b17d36bf11610081578063c574c2e311610066578063c574c2e3146102c8578063dfaff1b8146102e8578063f2fde38b146102fb57600080fd5b8063b17d36bf146102b7578063b33712c5146102c057600080fd5b80639f08e497116100b25780639f08e49714610289578063a14e10dd1461029c578063a60e40e5146102a457600080fd5b80638da5cb5b1461025157806399ae559d1461027657600080fd5b8063439766ce116101245780635c975abb116101095780635c975abb14610214578063715018a6146102265780637a57823f1461022e57600080fd5b8063439766ce146101f9578063500574d31461020157600080fd5b80632e4c3f62116101555780632e4c3f62146101b3578063340d7606146101e6578063372500ab146101ef57600080fd5b80631b3ed722146101715780632a2bb99114610193575b600080fd5b610180670de0b6b3a764000081565b6040519081526020015b60405180910390f35b6101806101a1366004610ca0565b60076020526000908152604090205481565b6101d66101c1366004610ca0565b60056020526000908152604090205460ff1681565b604051901515815260200161018a565b61018060025481565b6101f761030e565b005b6101f76106d9565b6101f761020f366004610d1c565b6106eb565b600054600160a01b900460ff166101d6565b6101f76108f8565b6101d661023c366004610ca0565b60066020526000908152604090205460ff1681565b6000546001600160a01b03165b6040516001600160a01b03909116815260200161018a565b61025e610284366004610db6565b61090a565b6101f7610297366004610ca0565b610934565b6101f761096b565b60015461025e906001600160a01b031681565b61018060035481565b6101f7610a0b565b6101806102d6366004610ca0565b60086020526000908152604090205481565b6101f76102f6366004610dcf565b610a1b565b6101f7610309366004610ca0565b610a51565b610316610aa8565b3360009081526005602052604090205460ff1661037a5760405162461bcd60e51b815260206004820152601860248201527f4e6f7420656c696769626c6520666f722072657761726473000000000000000060448201526064015b60405180910390fd5b3360009081526006602052604090205460ff16156103da5760405162461bcd60e51b815260206004820152601960248201527f416c726561647920636c61696d65642074686973207765656b000000000000006044820152606401610371565b33600090815260076020908152604080832054600890925290912054811515806104045750600081115b6104505760405162461bcd60e51b815260206004820152601460248201527f4e6f207265776172647320617661696c61626c650000000000000000000000006044820152606401610371565b816002541015801561046457508060035410155b6104b05760405162461bcd60e51b815260206004820152601260248201527f506f6f6c206973206e6f7420656e6f75676800000000000000000000000000006044820152606401610371565b336000908152600660205260409020805460ff1916600117905581156105aa576001546040517fa9059cbb000000000000000000000000000000000000000000000000000000008152336004820152602481018490526001600160a01b039091169063a9059cbb906044016020604051808303816000875af115801561053a573d6000803e3d6000fd5b505050506040513d601f19601f8201168201806040525081019061055e9190610df1565b6105aa5760405162461bcd60e51b815260206004820152601460248201527f424f5353207472616e73666572206661696c65640000000000000000000000006044820152606401610371565b801561069a57804710156106005760405162461bcd60e51b815260206004820152601960248201527f496e73756666696369656e7420515541492062616c616e6365000000000000006044820152606401610371565b604051600090339083908381818185875af1925050503d8060008114610642576040519150601f19603f3d011682016040523d82523d6000602084013e610647565b606091505b50509050806106985760405162461bcd60e51b815260206004820152601460248201527f51554149207472616e73666572206661696c65640000000000000000000000006044820152606401610371565b505b604080518381526020810183905233917fdacbdde355ba930696a362ea6738feb9f8bd52dfb3d81947558fd3217e23e325910160405180910390a25050565b6106e1610aec565b6106e9610b32565b565b6106f3610aec565b848314801561070157508481145b61074d5760405162461bcd60e51b815260206004820152601760248201527f4d69736d61746368656420696e707574206172726179730000000000000000006044820152606401610371565b61075960046000610c6e565b60005b858110156108ef5760016005600089898581811061077c5761077c610e13565b90506020020160208101906107919190610ca0565b6001600160a01b031681526020810191909152604001600020805460ff19169115159190911790558484828181106107cb576107cb610e13565b90506020020135600760008989858181106107e8576107e8610e13565b90506020020160208101906107fd9190610ca0565b6001600160a01b0316815260208101919091526040016000205582828281811061082957610829610e13565b905060200201356008600089898581811061084657610846610e13565b905060200201602081019061085b9190610ca0565b6001600160a01b03168152602081019190915260400160002055600487878381811061088957610889610e13565b905060200201602081019061089e9190610ca0565b815460018101835560009283526020909220909101805473ffffffffffffffffffffffffffffffffffffffff19166001600160a01b03909216919091179055806108e781610e3f565b91505061075c565b50505050505050565b610900610aec565b6106e96000610b92565b6004818154811061091a57600080fd5b6000918252602090912001546001600160a01b0316905081565b61093c610aec565b6001805473ffffffffffffffffffffffffffffffffffffffff19166001600160a01b0392909216919091179055565b610973610aec565b60005b6004548110156109df576000600660006004848154811061099957610999610e13565b6000918252602080832091909101546001600160a01b031683528201929092526040019020805460ff1916911515919091179055806109d781610e3f565b915050610976565b506040517ffe483a50df06c9cac6296db46f49ecddac4f870b5dbb4bdb29a0fee24ff5ef7590600090a1565b610a13610aec565b6106e9610bef565b610a23610aec565b610a35670de0b6b3a764000083610e58565b600255610a4a670de0b6b3a764000082610e58565b6003555050565b610a59610aec565b6001600160a01b038116610a9c576040517f1e4fbdf700000000000000000000000000000000000000000000000000000000815260006004820152602401610371565b610aa581610b92565b50565b600054600160a01b900460ff16156106e9576040517fd93c066500000000000000000000000000000000000000000000000000000000815260040160405180910390fd5b6000546001600160a01b031633146106e9576040517f118cdaa7000000000000000000000000000000000000000000000000000000008152336004820152602401610371565b610b3a610aa8565b6000805460ff60a01b1916600160a01b1790557f62e78cea01bee320cd4e420270b5ea74000d11b0c9f74754ebdbfc544b05a258610b753390565b6040516001600160a01b03909116815260200160405180910390a1565b600080546001600160a01b0383811673ffffffffffffffffffffffffffffffffffffffff19831681178455604051919092169283917f8be0079c531659141344cd1fd0a4f28419497f9722a3daafe3b4186f6b6457e09190a35050565b610bf7610c2b565b6000805460ff60a01b191690557f5db9ee0a495bf2e6ff9c91a7834c1ba4fdd244a5e8aa4e537bd38aeae4b073aa33610b75565b600054600160a01b900460ff166106e9576040517f8dfc202b00000000000000000000000000000000000000000000000000000000815260040160405180910390fd5b5080546000825590600052602060002090810190610aa591905b80821115610c9c5760008155600101610c88565b5090565b600060208284031215610cb257600080fd5b81356001600160a01b0381168114610cc957600080fd5b9392505050565b60008083601f840112610ce257600080fd5b50813567ffffffffffffffff811115610cfa57600080fd5b6020830191508360208260051b8501011115610d1557600080fd5b9250929050565b60008060008060008060608789031215610d3557600080fd5b863567ffffffffffffffff80821115610d4d57600080fd5b610d598a838b01610cd0565b90985096506020890135915080821115610d7257600080fd5b610d7e8a838b01610cd0565b90965094506040890135915080821115610d9757600080fd5b50610da489828a01610cd0565b979a9699509497509295939492505050565b600060208284031215610dc857600080fd5b5035919050565b60008060408385031215610de257600080fd5b50508035926020909101359150565b600060208284031215610e0357600080fd5b81518015158114610cc957600080fd5b634e487b7160e01b600052603260045260246000fd5b634e487b7160e01b600052601160045260246000fd5b600060018201610e5157610e51610e29565b5060010190565b8082028115828204841417610e6f57610e6f610e29565b9291505056fea26469706673582212201c11f766bb008001d67a46949f7773c60189cae01b0164b624a0734507549fb564736f6c63430008110033",
  "linkReferences": {},
  "deployedLinkReferences": {}
}